:020000040800F2
:10000000100500200501000893190008C515000817
:10001000911900089D010008A91E000800000000B9
:100020000000000000000000000000008B1B000822
:100030005503000800000000891B00088D1B000804
:100040001F0100081F0100081F0100081F01000810
:100050001F0100081F0100081F0100081F01000800
:100060001F0100081F0100081F0100081F010008F0
:100070001F0100081F0100081F0100081F010008E0
:100080001F0100081F0100081F0100081F010008D0
:100090001F0100081F0100081F0100081F010008C0
:1000A0001F0100081F0100081F0100081F010008B0
:1000B0001F0100081F0100081F0100081F010008A0
:1000C0001F0100081F0100081F0100081F01000890
:1000D0001F0100081F0100089D1E00081F010008E5
:1000E0001F0100081F0100081F010008DFF810D0E1
:1000F00000F042F800480047AD200008AFF3008050
:10010000100500200648804706480047FEE7FEE746
:10011000FEE7FEE7FEE7FEE7FEE7FEE7FEE7FEE7B7
:10012000EF1B0008ED000008D2B201E000F8012B3F
:10013000491EFBD270470022F6E710B513460A4667
:1001400004461946FFF7F0FF204610BD30B50B46B8
:10015000014600202022012409E021FA02F59D42F7
:1001600005D303FA02F5491B04FA02F52844151ECB
:10017000A2F10102F1DC30BD064C074D06E0E0685B
:1001800040F0010394E8070098471034AC42F6D3DE
:10019000FFF7B0FFB43D0008D43D0008FEE70000C3
:1001A00070B5002400F02AF84FF48055124E04E098
:1001B000641CE4B2012000F06DF92946304600F0DD
:1001C00071FA10B1642CF3D30FE0642C0DD200242B
:1001D00004E0641CE4B2012000F05CF929463046DA
:1001E00000F060FA18B1642C04D3012070BD642CB7
:1001F000EFD3FAE7002070BD000801401FB50020D2
:100200000190029003904FF480500090694602489C
:1002100000F058F91FBD0000000801401FB5002084
:1002200002904FF480500090012001900320039031
:100230006946024800F046F91FBD00000008014071
:1002400010B500F06DF8BDE81040FFF7A9BF000041
:1002500070B500244FF48055134E04E0641CE4B2E2
:10026000012000F017F92946304600F01BFA08B1CA
:10027000642CF3D3002404E0641CE4B2012000F0F9
:1002800009F92946304600F00DFA08B9642CF3D379
:10029000282000F0FFF82946304600F003FA002835
:1002A00000D0012070BD00000008014070B50020A2
:1002B00004464006050EFFF7CBFF641C2843E4B25A
:1002C000082CF6D370BD2DE9FC410D46064600F022
:1002D00027F8FFF765FF10B10120BDE8FC8100247D
:1002E0006F46FFF7E3FF3855641CE4B2052CF8D3E2
:1002F0009DF800309DF801209DF802109DF8030044
:100300009C180F183C449DF80470BC4205D102EBC8
:1003100003222A8000EB012030800020DDE700006E
:1003200070B5FFF77BFF0A4D4FF480540022214641
:10033000284600F0BCF9142000F09AF8012221466A
:10034000284600F0B4F9BDE870401E2000F0A2B8C5
:10035000000801407047F8B516461F460D461024A8
:100360000246022304215020009401F0B3FB102325
:100370002E220421602001F041FB01232A460421A2
:100380006820009401F0A6FB102343220421702072
:1003900001F034FB0223324606215020009401F084
:1003A00099FB10232E220621602001F027FB012358
:1003B0003A4606216820009401F08CFB1023252288
:1003C0000621702001F01AFBBDE8F8404FF47A7066
:1003D00000F04EB872B6FEE710B590F82110002478
:1003E000022903D00421816301243DE001680A68E9
:1003F00022F00E020A6001680A6822F001020A6017
:100400001A4A0168914201D1012121E0174A1432B0
:10041000914201D110211BE0144A2832914201D1AE
:10042000891515E0114A3C32914201D189140FE03F
:100430000E4A5032914202D14FF4803108E00B4A0B
:100440006432914202D14FF4801101E04FF080718B
:10045000064A083A5160012180F82110002180F8F5
:100460002010416B01B18847204610BD08000240B2
:1004700070B5044600F020F90546601C02D004481F
:100480000078044400F018F9401BA042FAD370BD74
:100490001C00002070B54FF6FA75094E281A84B278
:1004A00030684462304600F033FE306801E0416A53
:1004B0008CB2AC42FBD3BDE87040014800F050BEA6
:1004C000840000202DE9F84FDFF8B891002409F1ED
:1004D000040A0AF1040B23460F270BF1040EC9E0AE
:1004E0000125A5402A40AA427DD1674ED1F804C01B
:1004F000ACEB0608B44532D014DCBCF1030F3AD0A3
:1005000009DCBCF1000F2AD0BCF1010F1CD0BCF1FA
:10051000020F31D11DE0BCF1110F17D0BCF1120F49
:100520002AD119E0B8F5881F19D006DCB8F5803F4C
:1005300015D0B8F5801F1FD111E0B8F5001F0ED0FF
:10054000B8F5041F18D10AE0CB6815E0CB681B1D75
:1005500012E0CB6808330FE0CB680C330CE08B68FB
:100560002BB1012B4FF0080303D0456104E00423B5
:1005700002E0056100E00023FF2A01D8064601E001
:1005800000F104064FEA840501D9A5F12005D6F84B
:10059000008007FA05FC28EA0C0803FA05F548EA8A
:1005A0000508C6F800804D68ED0062D5374DAE698C
:1005B00046F00106AE61AD6924F0030605F00105C1
:1005C0000095334D06EB050CDCF80850A607360FF6
:1005D00007FA06F825EA0805DFF8B880404503D198
:1005E0004FF0000817E044E0DFF8AC80404502D14E
:1005F0004FF001080FE0DFF8A480404502D14FF032
:10060000020808E0DFF89880404502D14FF0030867
:1006100001E04FF0040808FA06F848EA0508CCF8AB
:1006200008804D68D9F80060ED034D4601D51643AA
:1006300000E096432E604D68DAF80060AD03554641
:1006400001D5164300E096432E604D68DBF800604C
:10065000ED025D4601D5164300E096432E604D68DD
:10066000DEF80060AD02754601D5164300E0964302
:100670002E60641C0D682A46E5407FF431AFBDE86A
:10068000F88F00000004014000001110001002402B
:100690000000014000080140000C01400010014032
:1006A000001401408068084000D0012070470AB162
:1006B000016170470904FBE701488068704700004A
:1006C0001C00002070B5040025D094F83D000025E2
:1006D00020B984F83C50204600F050F9242084F8DA
:1006E0003D002068016821F0010101602068016877
:1006F00041F4004101602068016821F4004101607B
:1007000000F098FA4D4A6168914201D84C4900E0E6
:100710004C49884201D2012070BD4B492368B0FB8F
:10072000F1F15E6826F03F060E435E606368934217
:1007300006D94FF4967359434FF47A73B1FBF3F132
:100740002368491C1E6A26F03F063143196261681E
:10075000914210D84900401EB0FBF1F2521CC2F386
:100760000B02042A01D2042022E0B0FBF1F0401C6D
:10077000C0F30B001CE0A268F2B301EBC10303EB72
:100780000116431EB3FBF6F35B1C43F480431B05C9
:1007900049D092B301EBC10202EB0111401EB0FB44
:1007A000F1F0401CC0F30B0040F4804040F40040E6
:1007B0002168CA694CF6FF739A431043C861D4E9B3
:1007C000071001432068026822F0C0021143016053
:1007D000D4E9030101432068826848F2FF339A4359
:1007E00011438160D4E9050108432168CA6822F0F9
:1007F000FF021043C86001E00EE016E020680168C7
:1008000041F0010101602564202084F83D0025634A
:1008100084F83E50002070BD01EB4106431EB3FB3F
:10082000F6F35B1CB3E70120C2E701EB4101401E78
:10083000B0FBF1F0401CC0F30B00B7E7A08601004D
:1008400080841E0000093D0040420F002DE9FF4F4B
:1008500083B09A46DDE9119793460446DDF840805F
:10086000FFF72AFF054694F83D0020287FD1192381
:10087000012240492046009500F036FF002876D13D
:1008800094F83C00012872D0012084F83C002068D4
:100890000168C90703D1016841F0010101602068C6
:1008A000016821F400610160212084F83D004020AE
:1008B00084F83E0000262664C4F82480A4F82A9018
:1008C000608D20852C48E062CDE9007553465A467C
:1008D0002046049900F08EFE70B930E02A46394671
:1008E000204600F080FF58B1206C042804D1206815
:1008F000016841F400710160012007B0BDE8F08F8C
:10090000606A216800780861606A401C6062218D1D
:10091000491E89B22185628D521E62852268536903
:10092000DB435B070BD469B100781061606A401C3F
:100930006062208D401E2085608D401E6085208D68
:100940000028CBD12A463946204600F0A7FE0028D1
:10095000CAD154F83D0B016841F4007101602020B8
:1009600004F81E09E67766770020C6E7FFE7022055
:10097000C3E70000020010000000FFFF10B586B0C2
:100980000021009101910291039100680F49884272
:100990001AD10F4CA06940F00800A061A069694617
:1009A00000F008000490C020009012200190032065
:1009B00003900848FFF786FDE06940F40010E0610D
:1009C000E06900F40010049006B010BD005400402F
:1009D00000100240000C0140024881680278114476
:1009E000816070471C000020074810B5016841F085
:1009F00010010160032000F075F8002000F006F8F7
:100A000000F024F8002010BD0020024070B50D4D0C
:100A100004464FF47A712878B1FBF0F00A4909686E
:100A2000B1FBF0F000F0ECFA48B9102C07D200222C
:100A30002146501E00F036F800206C6070BD012089
:100A400070BD00001C000020280000200C4808B5E4
:100A5000816941F001018161816901F00101009129
:100A6000C16941F08051C161C06900F080500090BF
:100A70000448416821F0E06141F00071416008BD27
:100A80000010024000000140002809DB00F01F02B6
:100A9000012191404009800000F1E020C0F80011E0
:100AA00070470000F0B40E4B1B680C46C3F30223E2
:100AB000C3F10705042D00D90425191D072901D20A
:100AC000002300E0DB1E012606FA05F1491E214045
:100AD00099409E40761E16403143F0BC01F010BA9A
:100AE0000CED00E0064900F0070208684FF6FF032E
:100AF000184040EA0220034A104308607047000093
:100B00000CED00E00000FA052DE9F0470F46050066
:100B100061D0434E306800F00700B84209D2306817
:100B200020F0070038433060306800F00700B8421A
:100B300051D128683B4C810712D5400703D5606826
:100B400040F4E06060602878000703D5606840F4F6
:100B5000605060606068A96820F0F0000843606041
:100B60002878C00728D06868012810D0216802289A
:100B700010D0890700292EDA616821F003010143B2
:100B80006160FFF799FD804641F288390DE02168E8
:100B90008903EFE78901EDE7FFF78EFDA0EB080180
:100BA000494502D90320BDE8F0876068696800F014
:100BB0000C00B0EB810FEFD1306800F00700B842B5
:100BC0000BD9306820F0070038433060306800F0FF
:100BD0000700B84201D00120E5E72878400705D595
:100BE0006068E96820F4E0600843606028780007E6
:100BF00006D56068296920F4605040EAC100606051
:100C000000F038F86168084AC1F30311515CC8402C
:100C10000649086006480068FFF7F8FE0020C2E7B2
:100C200000200240001002409A3D000828000020E9
:100C3000200000200448054900684968044AC1F3BF
:100C40000221515CC840704728000020001002407B
:100C5000AA3D00080448054900684968044AC1F3F0
:100C6000C221515CC840704728000020001002409B
:100C7000AA3D000812A185B00FC98DE80F0014A08D
:100C8000144A006804905168134801F00C03042BC7
:100C900010D0082B0ED1C1F38343C9031DF8030004
:100CA0000AD5516804AAC1F34041515C0A4A504335
:100CB000B0FBF1F005B0704708494843FAE700007F
:100CC00002030405060708090A0B0C0D0E0F10108D
:100CD000010200000010024000127A0000093D00ED
:100CE0002DE9F84F040070D02078C04DC00749D0DE
:100CF0006868C0F38100012807D06868C0F38100EC
:100D0000022809D16868C00306D52868800339D550
:100D100060680028E7D035E06068B0F5803F0BD010
:100D200010B1B0F5A02F11D0286820F480302860D1
:100D3000286820F4802002E0286840F48030286091
:100D4000606890B1FFF7B8FC06460AE0286840F4F6
:100D500080202860F0E700BFFFF7AEFC801B64280E
:100D600073D828688003F7D50CE0FFF7A5FC06468A
:100D700005E000BFFFF7A0FC801B6428F0D82868BE
:100D80008003F7D420789A4E80074FF001094FF086
:100D9000000839D5686810F00C0F07D06868C0F3F8
:100DA0008100022809D16868C00306D4286880073A
:100DB00014D52069012808D110E02069B0B1C6F827
:100DC0000090FFF779FC074605E00AE1FFF774FCA5
:100DD000C01B0228C4D828688007F7D52868616935
:100DE00020F0F80040EAC10028600DE0C6F800805D
:100DF000FFF762FC074604E0FFF75EFCC01B022819
:100E000023D828688007F7D4207800072CD57948A4
:100E1000A169D9B1C0F80090FFF74EFC074604E085
:100E2000FFF74AFCC01B02280FD8686A8007F7D575
:100E300071484FF4FA510068B0FBF1F0009000BF28
:100E40000098411E0091FAD20EE080E0C0F80080C8
:100E5000FFF732FC074604E0FFF72EFCC01B022818
:100E600075D8686A8007F7D42078400760D5E869AC
:100E70000027C00008D4E86940F08050E861E869C4
:100E8000012700F0805000905C480168C90513D428
:100E90000168834641F480710160FFF70DFC8246D2
:100EA00006E000BFFFF708FCA0EB0A0064284ED85C
:100EB000DBF80000C005F5D5E06801280AD008B1CC
:100EC000052813D0286A20F001002862286A20F043
:100ED000040002E0286A40F001002862E06841F264
:100EE000883B98B1FFF7E8FB82460BE0286A40F0A8
:100EF00004002862EEE700BFFFF7DEFBA0EB0A016B
:100F000059455AD8286A8007F6D50CE0FFF7D4FB7C
:100F1000824605E0FFF7D0FBA0EB0A0159454CD80B
:100F2000286A8007F6D41FB1E86920F08050E86194
:100F3000E06988B36968C1F38101022944D00228BD
:100F4000C6F8608004D0FFF7B7FB044638E034E011
:100F5000FFF7B2FB074604E0FFF7AEFBC01B022819
:100F60002BD828688001F7D4206AB0F5803F05D1DE
:100F70006868A16820F4003008436860D4E908017B
:100F80000843696821F4741108436860C6F86090EA
:100F9000FFF792FB044606E025E000BFFFF78CFB5D
:100FA000001B022809D828688001F7D51BE000BF84
:100FB000FFF782FB001B022802D90320BDE8F88F4F
:100FC00028688001F4D40EE00128F7D06868226A0E
:100FD00000F48031914204D1616A00F470108842BB
:100FE00001D00120EAE70020E8E7000000100240FD
:100FF000000042428004424228000020007000406D
:1010000010B5401EB0F1807F01D3012010BD4FF01C
:10101000E02460610F21601700F072FF0020A061E2
:1010200007202061002010BD70B590F83C20012AF7
:1010300026D0012480F83C40022280F83D2003683D
:101040005A689D6822F070060A6832435A600D4B58
:1010500002689A4208D0B2F1804F05D00A4B9A42FA
:1010600002D00A4B9A4204D1496825F08003194303
:10107000916080F83D40002180F83C10084670BD2A
:10108000022070BD002C0140000400400008004018
:1010900010B5040003D094F83D0010B107E0012022
:1010A00010BD002084F83C00204600F01FF802200C
:1010B00084F83D00211D206800F09AFD012084F88D
:1010C000460084F83E0084F83F0084F8400084F82D
:1010D000410084F8420084F8430084F8440084F816
:1010E000450084F83D00002010BD000008B50068F0
:1010F000B0F1804F08D10548C16941F00101C161DB
:10110000C06900F00100009008BD0000001002401E
:1011100090F83D10012901D001207047022180F88C
:101120003D1000680B49884208D0B0F1804F05D0CF
:101130000949884202D00949884204D1816801F0F6
:101140000701062903D0016841F001010160002078
:1011500070470000002C01400004004000080040DF
:1011600001680A6A41F211131A4207D10A6A9B10F8
:101170001A4203D10A6822F001020A60012180F8B4
:101180003D100020704770B5044690F83C000128DF
:1011900017D0012584F83C50022084F83D002068D7
:1011A000826822F0770222F47F4282600868502829
:1011B00030D00DDC20284DD005DC98B310283BD171
:1011C00048E0022070BD302844D0402834D139E0B6
:1011D000602828D0702806D0B0F5805F2CD0B0F5FC
:1011E000005F29D10AE0CB68D1E90121206800F035
:1011F00035FD2068816841F0770109E0CB68D1E9CD
:101200000121206800F02AFD2068816841F48041B6
:10121000816011E0CA684968206800F031FD502102
:10122000206807E016E0CA684968206800F039FDC8
:101230006021206800F01CFD84F83D50002084F8F7
:101240003C0070BDCA684968206800F019FD402163
:101250002068EFE7226801461046EBE77047000080
:1012600070B5026804461068D168536910F00F0F1A
:1012700052D003F0010501F490762E435FD0C207EF
:1012800005D0CA0503D5E26B42F00102E2634207D2
:1012900005D5DA0703D0E26B42F00202E26382076F
:1012A00005D5DA0703D0E26B42F00402E2630207DD
:1012B00007D501F020022A4303D0E26B42F0080276
:1012C000E263E26B002A33D0800604D5880602D59B
:1012D000204600F00EFD20684069E16BC0F38010ED
:1012E000090700D428B3204600F0F5FC20684169C6
:1012F00049061AD5416921F040014161606BA0B1F6
:101300002D494163606BFFF767F8002810D0606BD0
:10131000416BBDE870400847830610D58B060ED59B
:101320002046BDE8704000F0E4BC2046FFF796FF81
:1013300070BD2046FFF792FF0020E06370BD0306FA
:101340002BD50B0629D594F839002128F6D1A068B1
:10135000B0F5805F01D12069B0B1206A411C2162E3
:10136000216800784860E08C401E0004000CE08496
:10137000E4D12068C16821F08001C1602068C168A3
:1013800041F04001C16070BD206A0088C0F30800D0
:101390005060206A801C2062E5E74006F3D54806CD
:1013A000F1D5D168204621F04001D160202184F898
:1013B000391000F006F970BDC71C000870B50400B4
:1013C00004D094F83900002510B106E0012070BD6A
:1013D00084F83850204600F023F8242084F839009F
:1013E0002068C16821F40051C160204600F0C8FCAB
:1013F0002068016921F4904101612068416921F070
:101400002A0141612068C16841F40051C160E5636F
:10141000202084F8390084F83A00002070BD0000D4
:1014200030B585B0002400940194029403940068C0
:10143000184988422BD11848C16941F40031C16173
:10144000C16901F400310491816941F004018161B5
:101450008069124D00F004000490042000900220E6
:1014600001900320039069462846FFF72BF80820D7
:10147000CDE90004694628460294FFF723F80022CC
:1014800011462620FFF70EFB2620FFF7FDFA05B0D8
:1014900030BD000000440040001002400008014040
:1014A00090F83A30202B22D1F9B1F2B190F83830CF
:1014B000012B1CD081628285C2850021C16322225A
:1014C00080F83A2080F838100168CA6842F48072C7
:1014D000CA6001684A6942F001024A610068C16855
:1014E00041F02001C16000207047012070470220B8
:1014F00070470000044A0168914203D10122034968
:10150000FFF7CEBF70470000003801401B000020ED
:101510002DE9F843044690F839001F4616460D465B
:1015200020284CD1C5B1BEB194F83800012846D06E
:10153000012084F838004FF00008C4F83C802120D6
:1015400084F83900FFF7B8F8A6848146E684A068DD
:10155000B0F5805F03D004E00120BDE8F883206986
:1015600028B12E465FF0000584F838800EE0002692
:10157000FAE78021204600F05FFCA0B9AEB116F872
:10158000010B21684860E08C401EE084E08C4B46F3
:101590004FF0000200970028EBD14FF040012046A9
:1015A00000F04AFC30B10320D7E735F8020BC0F356
:1015B0000800E6E7202084F839000020CDE702206B
:1015C000CBE77047FEE701684A69D24352050FD462
:1015D0006FF480624A61002140F8301F202242737C
:1015E0008173026942F004020261017301207047B5
:1015F000002070472DE9F843044600680D46DDE9F8
:10160000089701689846164641F4807101604B4680
:1016100000224FF001112046009700F065F848B114
:1016200020680068C00502D54FF4007020640320D4
:10163000BDE8F883216805F0FE0008613B464A4694
:101640001549204600F084F888B92068416980690E
:1016500000903A464946204600F0C5F848B1206C53
:10166000042804D12068016841F400710160012060
:10167000DEE7F5B2B8F1010F09D02168300A086140
:101680003A464946204600F0AEF80028E7D12068E7
:1016900005610020CCE700000200010070B516468D
:1016A0000D4604460DE02046FFF78DFF08B10120EE
:1016B00070BD681C05D0FEF7FFFF801BA84207D84D
:1016C00035B120684069C0434007ECD4002070BDAC
:1016D000002044F8300F20216173A073216941F08C
:1016E000200121612073E2E72DE9F0471E46904674
:1016F0000D460446C1F30747DDF8209008E0701C52
:1017000006D0FEF7D9FFA0EB0900B0420FD876B1A2
:101710002068012F18D0806925EA00000004000C21
:1017200014D000214145EAD00020BDE8F087002018
:1017300044F8300F20216173A073216941F020012A
:10174000216120730120F0E74069E5E70121E9E725
:101750002DE9F0479A4691460E46044600254FF083
:101760002008C1F3074725E020684069C0434005D1
:1017700014D42068016841F40071016021686FF49D
:1017800080604861256384F83D8084F83E50206C79
:1017900040F00400206484F83C501FE0B9F1FF3FA2
:1017A00008D0FEF789FFA0EB0A0149450CD8B9F132
:1017B000000F09D02068012F13D0806926EA0000AD
:1017C0000004000C0BD0CFE744F8305F84F80D80A4
:1017D000A573206940F02000206125730120BDE839
:1017E000F0874069EAE770B516460D4604460DE0FD
:1017F0002046FFF7E8FE08B1012070BD681C05D047
:10180000FEF75AFF801BA84207D835B1206840690F
:10181000C0430006ECD4002070BD002044F8300F17
:1018200020216173A073216941F02001216120739F
:10183000E2E7000030B585B00020009001900290F2
:1018400003901A48816941F010018161816901F0BA
:1018500010010491816941F020018161816901F0E9
:1018600020010491816941F004018161816901F0E5
:1018700004010491816941F00801816180690C4D86
:1018800000F008004FF480540490002221462846BE
:10189000FEF70DFF01210320CDE90210CDE9004143
:1018A00069462846FEF70EFE05B030BD0010024026
:1018B000000801400D4810B50B4901600C4941601A
:1018C00000214FF480428160C0E9031241618161CF
:1018D000C1610162FEF7F6FE002803D0BDE81040AA
:1018E000FEF778BD10BD000000540040300000201D
:1018F000A086010010B586B000241648009401941B
:101900000294039404944FF08041059401604721B0
:10191000C0E901144FF6FF71C0E903148461FFF7B9
:10192000B7FB08B1FEF756FD4FF4805000906946B2
:101930000848FFF728FC08B1FEF74CFD049404A901
:1019400004480594FFF770FB002801D0FEF742FD24
:1019500006B010BD840000200C4810B50A49016093
:101960004FF416514160002181600C22C160C0E932
:1019700004128161C161FFF721FD002803D0BDE899
:101980001040FEF727BD10BD00440040CC000020F1
:10199000FEE7FEE770B5002404F1B000C0B200F02D
:1019A000CFF8002000F0CCF8102000F0C9F8002596
:1019B000002000F0D7F86D1CEDB2802DF8D3641C28
:1019C000E4B2082CE8D370BD10B5C820FEF750FD76
:1019D000BDE8104000F06ABA10B50446B031C8B294
:1019E00000F0AEF8102040EA141000F0A9F804F05E
:1019F0000F00BDE8104000F0A3B800002DE9F04151
:101A0000203A00240D468046D6B27F2803D9002014
:101A10008D1C8046EDB2102B29460FD0FFF7DCFF5E
:101A2000164906EB460001EB4005285D00F09AF8E8
:101A3000641CE4B2062CF8D3BDE8F081FFF7CCFFBC
:101A40000F4F00BF04EB0610385C00F08BF8641CED
:101A5000E4B2082CF6D36D1CE9B24046FFF7BCFF98
:101A60005FF0000404EB06103844007A00F07AF8C6
:101A7000641CE4B2082CF5D3DEE70000A4230008C0
:101A8000CC2500082DE9F04115460E460746FFF724
:101A9000A3FF0F49C5EB0520002401EB4005285D9D
:101AA00000F060F8641CE4B2202CF8D3761CF1B28C
:101AB0003846FFF791FF0024281990F8FF0000F046
:101AC00051F8641CE4B2202CF6D3BDE8F08100008C
:101AD000AC2B00082DE9F05F0026DDF828901D46AC
:101AE00092468B46804634464FEA590723E0281B2E
:101AF000401EC1B20A2000F04DFCBAFBF0F00A21F2
:101B0000B0FBF1F201FB120026B9691E8C4201DA2A
:101B100038B101263030C2B207FB0480C0B24B4658
:101B200004E007FB0480C0B24B4620225946FFF771
:101B300065FF641CE4B2AC42D9D3BDE8F09F00005D
:101B400001B584B001214FF4807204A88DE807002C
:101B50000B46002278210248FEF778FE05B000BD52
:101B60003000002001B584B001214FF4807204A838
:101B70008DE807000B46402278210248FEF766FEFA
:101B800005B000BD3000002070477047FEF724BF4D
:101B900030B58FB028216846FEF7CDFA14210AA887
:101BA000FEF7C9FA01210804CDE9001000240294CF
:101BB00002250491CDE907504FF4E01009906846E2
:101BC000FFF78EF808B172B6FEE70F20CDE90A05DF
:101BD0004FF48060CDE90C4002210AA80E94FEF774
:101BE00093FF002801D072B6FEE70FB030BD7047FA
:101BF000F0B50268164B174C174D4FF080479842CE
:101C000005D0B84203D0A04201D0A84203D122F0AF
:101C100070064A683243984205D0B84203D0A042C9
:101C200001D0A84203D122F44074CA6822434C690F
:101C300022F08002224302608A68C2620A688262DD
:101C4000984201D10969016301214161F0BD0000A1
:101C5000002C0140000400400008004010B58468DA
:101C600042EA032224F47F440A432243826010BDE7
:101C7000826822F070020A4342F0070181607047D7
:101C800010B5036A046A24F001040462846924F034
:101C9000F00444EA021423F00A020A438461026257
:101CA00010BD10B5036A23F0100303628369046A50
:101CB00023F4704343EA023224F0A00343EA011103
:101CC0008261016210BD10B5406A0021C185C184E6
:101CD000FFF7C4FA10BD0168CA6822F49072CA60A6
:101CE00001684A6922F001024A61202180F83A1015
:101CF000704710B590F83A10222901D0022010BD8B
:101D000082684FF480539A4201D1016921B1816AFE
:101D10009A421BD04AB10AE00268816A5268C2F353
:101D200008020A80816A891C08E0026972B10268AF
:101D3000526802F07F020A70816A491C8162C18D7B
:101D4000491E0904090CC18503D016E002685268D7
:101D5000F1E70168CA6822F02002CA600168CA6817
:101D600022F48072CA6001684A6922F001024A6165
:101D7000202180F83A10FFF7BDFB002010BD0000C5
:101D800070B5044600680169E26821F440511143CE
:101D900001612169A0680843616908432168CA6834
:101DA00041F20C639A430243CA6020684169A26908
:101DB00021F44071114341611E492068884202D1DB
:101DC000FEF748FF01E0FEF735FF00EBC00101EB35
:101DD0000012606864218000B2FBF0F3B3FBF1F302
:101DE0006FF018067343B2FBF0F5B2FBF0F605EBAB
:101DF0008305322303EB0515B5FBF1F5B6FBF1F6D0
:101E000005F0F00505EB0615B2FBF0F6B2FBF0F0BD
:101E1000B0FBF1F06FF01802504306EB800003EBCB
:101E20000010B0FBF1F0216800F00F00284488603A
:101E300070BD0000003801402DE9F041984617467A
:101E40000E460446069D1DE0681C1BD02DB1FEF712
:101E500033FCA0EB0800A84214D92068C16821F423
:101E6000D071C1602068416921F0010141612020E9
:101E700084F8390084F83A00002084F83800032000
:101E8000BDE8F0812068006836EA000004D0002038
:101E9000B842D9D00020F3E70120F9E70148FFF765
:101EA000DFB90000CC000020FEE70000FEB50024F2
:101EB000094F4FF4807501263819CDE9000601233A
:101EC0000022782102950548FEF7C0FC641CE4B2AC
:101ED0001B2CF1D3FEBD00000000002030000020CC
:101EE0000FB4054B10B503A9044A029800F028F876
:101EF00010BC5DF814FB0000952000082C000020A9
:101F00000907090E002804DB00F1E02080F8001426
:101F1000704700F00F0000F1E02080F8141D7047BA
:101F200002E008C8121F08C1002AFAD170477047A2
:101F3000002001E001C1121F002AFBD17047000000
:101F40002DE9FF4F89B09B460446002506E0252871
:101F50000BD05A460B999047641C6D1C20780028C2
:101F6000F5D10DB02846BDE8F08F0027B846012214
:101F7000474900E0074314F8013F203B02FA03F011
:101F80000842F7D120782E2819D114F8010F47F014
:101F900004072A280ED06FF02F022078A0F130011C
:101FA00009290CD808EB880102EB410100EB01087C
:101FB000641CF2E70A98641C50F8048B0A9020789D
:101FC0000028CED0642808D0692806D075281ED0F5
:101FD0005A460B9990476D1C58E00A994FF00A0930
:101FE00001C90A91002802DA40422D2102E0390598
:101FF00004D52B218DF82010012103E0F90704D02E
:102000002021F7E78A4608AE0DE00021FAE70A9999
:102010004FF00A0901C90A91F7E74946FEF796F819
:10202000303106F8011D0028F7D1ADEB060000F1B4
:102030002009780701D44FF00108C84502DDA8EB5C
:10204000090000E000208046002706E008A85A4664
:10205000C05D0B9990476D1C7F1C5745F6DB04E073
:1020600030205A460B9990476D1CB8F10001A8F139
:102070000108F5DC05E016F8010B5A460B9990476C
:102080006D1CB9F10001A9F10109F4DC641C65E7DC
:102090000928010013B54FF6FF7301226946024873
:1020A000FFF736FA00981CBDCC0000200EB5FEF7F5
:1020B0009BFCFFF76DFDFFF7BDFBFFF71BFCFFF778
:1020C0004BFCFFF7F7FB4FF4FA7405E094A0FFF721
:1020D00007FF2046FEF7CCF9FEF7B2F80028F5D14D
:1020E000FFF772FCFFF756FC002211461020FFF7A5
:1020F000C9FC012200212020FFF7C4FC022200219C
:102100003020FFF7BFFC032200214020FFF7BAFC7C
:10211000042200215020FFF7B5FC05220021602099
:10212000FFF7B0FC022204210820FFF7ABFC0322DA
:1021300004211820FFF7A6FC062204212820FFF71F
:10214000A1FC082204213820FFF79CFC10233A222E
:1021500004214820FFF752FC022206210820FFF745
:1021600091FC032206211820FFF78CFC0722062190
:102170002820FFF787FC082206213820FFF782FC81
:1021800010233A2206214820FFF738FCDFF8AC91F3
:102190004FF47A7A012269496948FFF781F999F881
:1021A000007002A901A8FEF78EF8BDF80400040A29
:1021B00000F0FF08BDF80800060AC5B261A0FFF7ED
:1021C0008FFE4246214667A0FFF78AFE2A46314627
:1021D0006AA0FFF785FE5BA0FFF782FE312F01D0DA
:1021E000322F06D02B46324641462046FEF7B3F842
:1021F00091E0FFF7E9FBFFF7CDFB2E20FFF7A0FCF6
:10220000A320FFF79DFC0020FFF79AFC4020FFF77A
:1022100097FC2A20FFF794FC0020FFF791FC002098
:10222000FFF78EFC0120FFF78BFC0020FFF788FCF6
:102230000420FFF785FC022211460820FFF722FC4C
:10224000032202211820FFF71DFC0622022128206C
:10225000FFF718FC082202213820FFF713FC102397
:102260003A2202214820FFF7C9FB0222062108205A
:10227000FFF708FC032206211820FFF703FC0722C2
:1022800006212820FFF7FEFB082206213820FFF751
:10229000F9FB10233A2206214820FFF7AFFB102755
:1022A00002232246194650200097FFF713FC102303
:1022B0002E2202216020FFF7A1FB012342460221CA
:1022C00068200097FFF706FC1023432202217020AC
:1022D000FFF794FB02233246062150200097FFF7B8
:1022E000F9FB10232E2206216020FFF787FB012334
:1022F0002A46062168200097FFF7ECFB10232522D1
:1023000006217020FFF77AFB2F20FFF719FC41F21E
:102310007070FEF7ADF85046FEF7AAF83AE70000F5
:102320004448543131BDD3C8EBCAA7B0DCA3ACC715
:10233000EBD6D8CAD4A3A10D0A0000001B000020D0
:10234000CC0000203D3D3D3D3D3D3D3D3D3D3D3DC5
:102350003D3D3D3D3D3D3D3D3D3D3D3D3D3D0D0A10
:1023600000000000CAB5CAB1CEC2B6C8CEAAA3BA90
:1023700025642E2564430D0A00000000CAB5CAB1C9
:10238000CAAAB6C8CEAAA3BA25642E256425250DEF
:102390000A0000000246012000E05043491EC9B275
:1023A000FBD270470000000000000000002F00007A
:1023B00000000700070000147F147F1400242A7F08
:1023C0002A12006264081323003649552250000087
:1023D0000503000000001C224100000041221C00F7
:1023E0000014083E08140008083E0808000000A079
:1023F0006000000808080808000060600000002075
:1024000010080402003E5149453E0000427F400052
:10241000004261514946002141454B3100181412D8
:102420007F10002745454539003C4A4949300001A5
:102430007109050300364949493600064949291EF4
:102440000000363600000000563600000008142256
:102450004100001414141414000041221408000256
:102460000151090600324959513E007C1211127C7B
:10247000007F49494936003E41414122007F4141A8
:10248000221C007F49494941007F09090901003E9A
:102490004149497A007F0808087F0000417F4100D8
:1024A000002040413F01007F08142241007F40404E
:1024B0004040007F020C027F007F0408107F003E36
:1024C0004141413E007F09090906003E4151215E1C
:1024D000007F091929460046494949310001017F19
:1024E0000101003F4040403F001F2040201F003FAF
:1024F0004038403F00631408146300070870080761
:1025000000615149454300007F41410000552A5573
:102510002A55000041417F000004020102040040EE
:102520004040404000000102040000205454547810
:10253000007F484444380038444444200038444430
:10254000487F00385454541800087E0901020018CE
:10255000A4A4A47C007F080404780000447D40000B
:10256000004080847D00007F102844000000417FEF
:102570004000007C04180478007C080404780038CB
:102580004444443800FC242424180018242418FC53
:10259000007C0804040800485454542000043F44BC
:1025A0004020003C4040207C001C2040201C003C7F
:1025B0004030403C004428102844001CA0A0A07CCF
:1025C000004464544C441414141414140000000007
:1025D000000000000000000000000000000000F803
:1025E00000000000000000333000000000100C0666
:1025F000100C0600000000000000000040C0784001
:10260000C0784000043F04043F040400007088FCCC
:1026100008300000001820FF211E0000F008F00024
:10262000E018000000211C031E211E0000F0088895
:10263000700000001E2123241927211010160E00FF
:10264000000000000000000000000000000000E0AA
:1026500018040200000000071820400000020418BF
:10266000E00000000040201807000000404080F01B
:10267000804040000202010F01020200000000F051
:10268000000000000101011F010101000000000025
:102690000000000080B0700000000000000000009A
:1026A0000000000000010101010101010000000023
:1026B00000000000003030000000000000000000BA
:1026C00080601804006018060100000000E0100897
:1026D0000810E000000F102020100F00001010F86C
:1026E000000000000020203F2020000000700808AB
:1026F000088870000030282422213000003008882B
:10270000884830000018202020110E000000C02052
:1027100010F8000000070424243F240000F8088873
:10272000880808000019212020110E0000E0108800
:1027300088180000000F112020110E000038080832
:10274000C83808000000003F000000000070880842
:1027500008887000001C222121221C0000E01008C3
:102760000810E0000000312222110F00000000C01C
:10277000C0000000000000303000000000000080B9
:1027800000000000000080600000000000008040A9
:1027900020100800000102040810200040404040C2
:1027A0004040400004040404040404000008102015
:1027B000408000000020100804020100007048085A
:1027C0000808F0000000003036010000C030C828C2
:1027D000E810E0000718272423140B000000C0387D
:1027E000E0000000203C23020227382008F88888F7
:1027F00088700000203F202020110E00C030080803
:1028000008083800071820202010080008F80808D9
:102810000810E000203F202020100F0008F88888D2
:10282000E8081000203F20202320180008F888889E
:10283000E8081000203F200003000000C030080816
:102840000838000007182020221E020008F808009F
:102850000008F808203F210101213F20000808F866
:10286000080800000020203F202000000000080889
:10287000F8080800C08080807F00000008F888C049
:1028800028180800203F20012638200008F80800FA
:1028900000000000203F20202020300008F8F80031
:1028A000F8F80800203F003F003F200008F830C043
:1028B0000008F808203F200007183F00E010080833
:1028C0000810E0000F10202020100F0008F8080862
:1028D0000808F000203F210101010000E010080875
:1028E0000810E0000F18242438504F0008F888889A
:1028F00088887000203F2000030C3020007088087A
:10290000080838000038202121221C00180808F887
:10291000080818000000203F2000000008F8080008
:102920000008F808001F202020201F0008788800D9
:1029300000C83808000007380E010000F80800F849
:102940000008F800033C0700073C030008186880F3
:102950008068180820302C03032C30200838C80069
:10296000C83808000000203F2000000010080808B8
:10297000C83808002038262120201800000000FE5A
:10298000020202000000007F40404000000C30C006
:1029900000000000000000010638C0000002020232
:1029A000FE000000004040407F00000000000402E4
:1029B000020204000000000000000000000000000F
:1029C00000000000808080808080808000020204FF
:1029D00000000000000000000000000000008080F7
:1029E000808000000019242222223F2008F8008065
:1029F00080000000003F112020110E000000008028
:102A000080800000000E11202020110000000080B6
:102A10008088F800000E112020103F2000008080E8
:102A200080800000001F222222221300008080F0FC
:102A3000888888180020203F202000000000808027
:102A400080808000006B94949493600008F800806C
:102A500080800000203F210000203F2000809898C7
:102A6000000000000020203F202000000000008027
:102A70009898000000C08080807F000008F8000067
:102A800080808000203F24022D302000000808F8BC
:102A9000000000000020203F202000008080808077
:102AA00080808000203F20003F20003F8080008009
:102AB00080800000203F210000203F200000808017
:102AC00080800000001F202020201F0080800080C8
:102AD0008000000080FFA12020110E000000008077
:102AE00080808000000E112020A0FF808080800068
:102AF0008080800020203F21200001000000808095
:102B0000808080000033242424241900008080E089
:102B1000808000000000001F202000008080000056
:102B200000808000001F202020103F208080800037
:102B30000080808000010E30080601008080008047
:102B4000008080800F300C030C300F00008080006C
:102B5000808080000020312E0E3120008080800097
:102B60000080808080818E70180601000080808047
:102B7000808080000021302C2221300000000000E5
:102B8000807C020200000000003F40400002027C06
:102B9000800000000040403F0000000000000000F6
:102BA000FF00000000000000FF0000000040424461
:102BB0005840407F40405048C600000000000000E0
:102BC0000000000000000000000000000000000005
:102BD00000000000000000000000000000000000F5
:102BE00000000000000000000000000000000000E5
:102BF00000000000000000000000000000000000D5
:102C000000000000000000000000000000000000C4
:102C100000000000000000000000000000000000B4
:102C200000000000000000000000000000000000A4
:102C30000000000000000000000000000000000094
:102C40000000000000000000000000000000000084
:102C50000000000000000000000000000000000074
:102C60000000000000000000000000000000000064
:102C70000000000000000000000000000000000054
:102C80000000000000000000000000000000000044
:102C90000000000000000000000000000000000034
:102CA0000000000000000000000000004044444418
:102CB00044444444444444FF000000000000000039
:102CC0000000000000000000000000000000000004
:102CD00000000000000000000000000000000000F4
:102CE00000000000000000000000000000000000E4
:102CF00000000000000000000000000000000000D4
:102D000000000000000000000000000000000000C3
:102D100000000000000000000000000000000000B3
:102D200000000000000000000000000000000000A3
:102D30000000000000000000000000000000000093
:102D40000000000000000000000000000000000083
:102D50000000000000000000000000000000000073
:102D60000000000000000000000000000000000063
:102D70000000000000000000000000000000000053
:102D80000000000000000000000000000000000043
:102D90000000000000000000000000000000000033
:102DA000000000000000000000000808E8292E28AC
:102DB000E80808C80C0BE808080000000000000044
:102DC0000000000000000000000000000000000003
:102DD00000000000000000000000000000000000F3
:102DE00000000000000000000000000000000000E3
:102DF00000000000000000000000000000000000D3
:102E000000000000000000000000000000000000C2
:102E100000000000000000000000000000000000B2
:102E200000000000000000000000000000000000A2
:102E30000000000000000000000000000000000092
:102E40000000000000000000000000000000000082
:102E50000000000000000000000000000000000072
:102E60000000000000000000000000000000000062
:102E70000000000000000000000000000000000052
:102E80000000000000000000000000000000000042
:102E90000000000000000000000000000000000032
:102EA0000000000000000000000000FF0949897FC9
:102EB00000000F40807F00000000000000000000C4
:102EC0000000000000000000000000000000000002
:102ED00000000000000000000000000000000000F2
:102EE00000000000000000000000000000000000E2
:102EF00000000000000000000000000000000000D2
:102F000000000000000000000000000000000000C1
:102F100000000000000000000000000000000000B1
:102F200000000000000000000000000000000000A1
:102F30000000000000000000000000000000000091
:102F40000000000000000000000000000000000081
:102F50000000000000000000000000000000000071
:102F60000000000000000000000000000000000061
:102F70000000000000000000000000000000000051
:102F80000000000000000000000000000000000041
:102F90000000000000000000000000000000000031
:102FA0000000000000000000100C048414640506FA
:102FB000F404040404140C000000000000000000ED
:102FC0000000000000000000000000000000000001
:102FD00000000000000000000000000000000000F1
:102FE00000000000000000000000000000000000E1
:102FF00000000000000000000000000000000000D1
:1030000000000000000000000000000000000000C0
:1030100000000000000000000000000000000000B0
:1030200000000000000000000000000000000000A0
:103030000000000000000000000000000000000090
:103040000000000000000000000000000000000080
:103050000000000000000000000000000000000070
:103060000000000000000000000000000000000060
:103070000000000000000000000000000000000050
:103080000000000000000000000000000000000040
:103090000000000000000000000000000000000030
:1030A00000000000000000048484444724140C073E
:1030B0000C14244484040000000000000000000000
:1030C0000000000000000000000000000000000000
:1030D00000000000000000000000000000000000F0
:1030E00000000000000000000000000000000000E0
:1030F00000000000000000000000000000000000D0
:1031000000000000000000000000000000000000BF
:1031100000000000000000000000000000000000AF
:10312000000000000000000000000000000000009F
:10313000000000000000000000000000000000008F
:10314000000000000000000000000000000000007F
:10315000000000000000000000000000000000006F
:10316000000000000000000000000000000000005F
:10317000000000000000000000000000000000004F
:10318000000000000000000000000000000000003F
:10319000000000000000000000000000000000002F
:1031A00000000000000000FC848484FC001010106B
:1031B0001010FF10100000000000000000000000D0
:1031C00000000000000000000000000000000000FF
:1031D00000000000000000000000000000000000EF
:1031E00000000000000000000000000000000000DF
:1031F00000000000000000000000000000000000CF
:1032000000000000000000000000000000000000BE
:1032100000000000000000000000000000000000AE
:10322000000000000000000000000000000000009E
:10323000000000000000000000000000000000008E
:10324000000000000000000000000000000000007E
:10325000000000000000000000000000000000006E
:10326000000000000000000000000000000000005E
:10327000000000000000000000000000000000004E
:10328000000000000000000000000000000000003E
:10329000000000000000000000000000000000002E
:1032A0000000000000003F1010103F000001064029
:1032B000807F00000000000000000000000000000F
:1032C00000000000000000000000000000000000FE
:1032D00000000000000000000000000000000000EE
:1032E00000000000000000000000000000000000DE
:1032F00000000000000000000000000000000000CE
:1033000000000000000000000000000000000000BD
:1033100000000000000000000000000000000000AD
:10332000000000000000000000000000000000009D
:10333000000000000000000000000000000000008D
:10334000000000000000000000000000000000007D
:10335000000000000000000000000000000000006D
:10336000000000000000000000000000000000005D
:10337000000000000000000000000000000000004D
:10338000000000000000000000000000000000003D
:10339000000000000000000000000000000000002D
:1033A0000000000090523410FF10345280708F08DB
:1033B00008F8080000000000000000000000000005
:1033C00000000000000000000000000000000000FD
:1033D00000000000000000000000000000000000ED
:1033E00000000000000000000000000000000000DD
:1033F00000000000000000000000000000000000CD
:1034000000000000000000000000000000000000BC
:1034100000000000000000000000000000000000AC
:10342000000000000000000000000000000000009C
:10343000000000000000000000000000000000008C
:10344000000000000000000000000000000000007C
:10345000000000000000000000000000000000006C
:10346000000000000000000000000000000000005C
:10347000000000000000000000000000000000004C
:10348000000000000000000000000000000000003C
:10349000000000000000000000000000000000002C
:1034A000000000829A566322528E008040330C3313
:1034B000408000000000000000000000000000004C
:1034C00000000000000000000000000000000000FC
:1034D00000000000000000000000000000000000EC
:1034E00000000000000000000000000000000000DC
:1034F00000000000000000000000000000000000CC
:1035000000000000000000000000000000000000BB
:1035100000000000000000000000000000000000AB
:10352000000000000000000000000000000000009B
:10353000000000000000000000000000000000008B
:10354000000000000000000000000000000000007B
:10355000000000000000000000000000000000006B
:10356000000000000000000000000000000000005B
:10357000000000000000000000000000000000004B
:10358000000000000000000000000000000000003B
:10359000000000000000000000000000000000002B
:1035A00000001010FF109000FE929292F292929EF4
:1035B000800000000000000000000000000000008B
:1035C00000000000000000000000000000000000FB
:1035D00000000000000000000000000000000000EB
:1035E00000000000000000000000000000000000DB
:1035F00000000000000000000000000000000000CB
:1036000000000000000000000000000000000000BA
:1036100000000000000000000000000000000000AA
:10362000000000000000000000000000000000009A
:10363000000000000000000000000000000000008A
:10364000000000000000000000000000000000007A
:10365000000000000000000000000000000000006A
:10366000000000000000000000000000000000005A
:10367000000000000000000000000000000000004A
:10368000000000000000000000000000000000003A
:10369000000000000000000000000000000000002A
:1036A0000042827F0180601F00FC44474444FC00CC
:1036B000000000000000000000000000000000000A
:1036C00000000000000000000000000000000000FA
:1036D00000000000000000000000000000000000EA
:1036E00000000000000000000000000000000000DA
:1036F00000000000000000000000000000000000CA
:1037000000000000000000000000000000000000B9
:1037100000000000000000000000000000000000A9
:103720000000000000000000000000000000000099
:103730000000000000000000000000000000000089
:103740000000000000000000000000000000000079
:103750000000000000000000000000000000000069
:103760000000000000000000000000000000000059
:103770000000000000000000000000000000000049
:103780000000000000000000000000000000000039
:103790000000000000000000000000000000000029
:1037A0001060028C0000FE9292929292FE00000045
:1037B0000000000000000000000000000000000009
:1037C00000000000000000000000000000000000F9
:1037D00000000000000000000000000000000000E9
:1037E00000000000000000000000000000000000D9
:1037F00000000000000000000000000000000000C9
:1038000000000000000000000000000000000000B8
:1038100000000000000000000000000000000000A8
:103820000000000000000000000000000000000098
:103830000000000000000000000000000000000088
:103840000000000000000000000000000000000078
:103850000000000000000000000000000000000068
:103860000000000000000000000000000000000058
:103870000000000000000000000000000000000048
:103880000000000000000000000000000000000038
:103890000000000000000000000000000000000424
:1038A000047E01407E42427E427E42427E400000D3
:1038B0000000000000000000000000000000000008
:1038C00000000000000000000000000000000000F8
:1038D00000000000000000000000000000000000E8
:1038E00000000000000000000000000000000000D8
:1038F00000000000000000000000000000000000C8
:1039000000000000000000000000000000000000B7
:1039100000000000000000000000000000000000A7
:103920000000000000000000000000000000000097
:103930000000000000000000000000000000000087
:103940000000000000000000000000000000000077
:103950000000000000000000000000000000000067
:103960000000000000000000000000000000000057
:103970000000000000000000000000000000000047
:103980000000000000000000000000000000000037
:1039900000000000000000000000000000001060B7
:1039A000028C00FE929292929292FE000000000021
:1039B0000000000000000000000000000000000007
:1039C00000000000000000000000000000000000F7
:1039D00000000000000000000000000000000000E7
:1039E00000000000000000000000000000000000D7
:1039F00000000000000000000000000000000000C7
:103A000000000000000000000000000000000000B6
:103A100000000000000000000000000000000000A6
:103A20000000000000000000000000000000000096
:103A30000000000000000000000000000000000086
:103A40000000000000000000000000000000000076
:103A50000000000000000000000000000000000066
:103A60000000000000000000000000000000000056
:103A70000000000000000000000000000000000046
:103A80000000000000000000000000000000000036
:103A90000000000000000000000000000004047EA0
:103AA000014448507F40407F50484440000000009F
:103AB0000000000000000000000000000000000006
:103AC00000000000000000000000000000000000F6
:103AD00000000000000000000000000000000000E6
:103AE00000000000000000000000000000000000D6
:103AF00000000000000000000000000000000000C6
:103B000000000000000000000000000000000000B5
:103B100000000000000000000000000000000000A5
:103B20000000000000000000000000000000000095
:103B30000000000000000000000000000000000085
:103B40000000000000000000000000000000000075
:103B50000000000000000000000000000000000065
:103B60000000000000000000000000000000000055
:103B70000000000000000000000000000000000045
:103B80000000000000000000000000000000000035
:103B90000000000000000000000000000000FC2405
:103BA0002424FC252624FC242424040000000000F6
:103BB0000000000000000000000000000000000005
:103BC00000000000000000000000000000000000F5
:103BD00000000000000000000000000000000000E5
:103BE00000000000000000000000000000000000D5
:103BF00000000000000000000000000000000000C5
:103C000000000000000000000000000000000000B4
:103C100000000000000000000000000000000000A4
:103C20000000000000000000000000000000000094
:103C30000000000000000000000000000000000084
:103C40000000000000000000000000000000000074
:103C50000000000000000000000000000000000064
:103C60000000000000000000000000000000000054
:103C70000000000000000000000000000000000044
:103C80000000000000000000000000000000000034
:103C9000000000000000000000000040308F808421
:103CA0004C55252525554C808080000000000000E3
:103CB0000000000000000000000000000000000004
:103CC00000000000000000000000000000000000F4
:103CD00000000000000000000000000000000000E4
:103CE00000000000000000000000000000000000D4
:103CF00000000000000000000000000000000000C4
:103D000000000000000000000000000000000000B3
:103D100000000000000000000000000000000000A3
:103D20000000000000000000000000000000000093
:103D30000000000000000000000000000000000083
:103D40000000000000000000000000000000000073
:103D50000000000000000000000000000000000063
:103D60000000000000000000000000000000000053
:103D70000000000000000000000000000000000043
:103D80000000000000000000000000000000000033
:103D90000000000000000000000000000000000023
:103DA00000000102030406070809000000000102E8
:103DB00003040000D43D0008000000203000000093
:103DC000201F0008043E000830000020E00400002E
:103DD000301F0008AE001040B081FFA1A6A83FC868
:103DE000D300D580D805D9F1DA12D8308D14AF00C0
:103DF0000100000010000000000000000024F4009A
:043E000000000000BE
:04000005080000ED02
:00000001FF
